:020000040000FA
:100000000A128A11E52F00308A000408840A820748
:1000100000343234303432343134313400345334F7
:1000200069347334743465346D346134203442344B
:100030006C346F34713475346534613464346F34C6
:10004000003443346C3461347634653420344934BC
:100050006E3463346F3472347234653463347434A0
:100060006134003443346C34613476346534203484
:1000700043346F34723472346534633474346134AD
:10008000003449346E346734723465347334653403
:0C00900020346B34653479343A34003489
:10074000F030831603138605F03086048113080009
:1007500001300A128A115D240A128A110830F4004D
:10076000C930F300F30BB22BF40BB22BB72B0800FC
:100770007E088A007F0882000A128A11B8230A12B2
:100780008A118000840A04087D0603190034FF0AD8
:100790000319FE0ABC2BDA2B730884000A128A1193
:1007A00003200A128A110A128A1193240A128A114A
:1007B0000130F307730884000A128A1103200A1219
:1007C0008A11003A031DE52BE62BCC2B0800F6001E
:1007D000023076020318ED2BEE2BF92B74080F393B
:1007E0008038F70077080A128A115D240A128A11EC
:1007F000032C74080F39C038F70077080A128A11E1
:100800005D240A128A117508F3000A128A11CB239B
:100810000A128A11080000340E340A340A341F34D4
:100820001F341F34003400340134033416341C34B4
:10083000083400340034003411340A3404340434ED
:100840000A341134003431343234333441343434E2
:1008500035343634423437343834393443342A3436
:100860003034233444348316031387012730F400D3
:10087000F530F300F30B3A2CF40B3A2C02300A1249
:100880008A115D240A128A1128300A128A115D2405
:100890000A128A1101300A128A115D240A128A1181
:1008A0000C300A128A115D240A128A1106300A12CB
:1008B0008A115D240A128A110800F200F0307205D4
:1008C000F0008312031307080F3970048700071024
:1008D000871400008312031387100330F100973050
:1008E000F000F00B712CF10B712C762C7208F000DB
:1008F00004300310F00DFF3E031D792C8312031307
:1009000007080F397004870087140000831203134F
:1009100087100830F100C930F000F00B8D2CF10B7E
:100920008D2C922C0800F200F0307205F00083123A
:10093000031307080F397004870007148714000099
:100940008312031387100330F1009730F000F00B8F
:10095000A72CF10BA72CAC2C7208F000043003106C
:10096000F00DFF3E031DAF2C8312031307080F3950
:100970007004870087140000831203138710083067
:10098000F100C930F000F00BC32CF10BC32CC82CC4
:100990000800F7017708F30002300310F30DFF3E63
:1009A000031DCD2C0310730D403E0A128A115D24E5
:1009B0000A128A11F6017708F30003300310F30DD1
:1009C000FF3E031DDE2C20307307F4007608740709
:1009D000F50075088400831300080A128A11932415
:1009E0000A128A110130F60708307602031CF92C2E
:1009F000FA2CDB2C0130F70703307702031C012DA2
:100A0000022DCA2C08000130F2020030031CF3034F
:100A1000F302720A031D102D730A031D102D112DF0
:100A20001E2DF001F1015A2D0130F0070130F107C0
:100A30000130F2020030031CF303F302700884005B
:100A4000831300080319252D262D482D71088400D5
:100A50000A128A1103200A128A11003A0319312D51
:100A6000322D482D720873040319372D382D482D67
:100A7000710884000A128A1103200A128A11F400F4
:100A800070088400000874060319472D482D142DA2
:100A9000710884000A128A1103200A128A11F400D4
:100AA000700884000008F50074087502F000F10178
:100AB000031CF1030800383084004830F000103087
:100AC000F10083130008F200040AF30070088400A8
:100AD00072088000040AF00073088400F10B612D95
:100AE00083120313D801D901DA01831203135908C1
:100AF0005A04031D7C2D7D2DA22DFE308600423030
:100B0000F000F00B812D0000872D4808D8008312DB
:100B10000313061E8C2D8D2D852D902D4908D80090
:100B2000861E932D942D8E2D972D4A08D800061FD2
:100B30009A2D9B2D952D9E2D4B08D800861FA12DFB
:100B4000A22D9C2D59035A04031DA72DA82DCD2D90
:100B5000FD3086004230F000F00BAC2D0000B22DCD
:100B60004C08D80083120313061EB72DB82DB02DE4
:100B7000BB2D4D08D800861EBE2DBF2DB92DC22D10
:100B80004E08D800061FC52DC62DC02DC92D4F08F3
:100B9000D800861FCC2DCD2DC72D023059065A0402
:100BA000031DD32DD42DF92DFB3086004230F000EB
:100BB000F00BD82D0000DE2D5008D800831203134F
:100BC000061EE32DE42DDC2DE72D5108D800861EEE
:100BD000EA2DEB2DE52DEE2D5208D800061FF12D44
:100BE000F22DEC2DF52D5308D800861FF82DF92D88
:100BF000F32D033059065A04031DFF2D002E252E18
:100C0000F73086004230F000F00B042E00000A2E70
:100C10005408D80083120313061E0F2E102E082E20
:100C2000132E5508D800861E162E172E112E1A2E9A
:100C30005608D800061F1D2E1E2E182E212E5708CE
:100C4000D800861F242E252E1F2E0130D907031809
:100C5000DA0A0030DA075A08803AFF0080307F0253
:100C6000031D342E04305902031C372E382E752DE7
:100C700083120313580808007130831603138F0082
:100C800088018312031388018316031386018316D8
:100C9000031789010A128A1133240A128A110A12CF
:100CA0008A11C9240A128A110A128A11A0230A126F
:100CB0008A11831203136308803AFF0080307F0299
:100CC000031D642E033062020318672E682E872FDF
:100CD0000A128A11A8230A128A11F4013930F50088
:100CE00000300A128A11E7230A128A11C0300A1250
:100CF0008A115D240A128A1183120313E4010A1275
:100D00008A115B250A128A1183120313E10061081C
:100D100003198B2E8C2E9C2E2A300A128A119324B2
:100D20000A128A11831203136408653E8400610865
:100D3000831380000130E4070330FA000830F90023
:100D40007730F800F80BA22EF90BA22EFA0BA22E88
:100D500008308312031364020318AF2EB02EB62E90
:100D600023306106031DB52EB62E7F2E6408653E26
:100D70008400831380016530F0000130F1000530FC
:100D8000F2000030F3000A128A1103250A128A11B8
:100D900070087104031DCD2ECE2E202F0A128A1149
:100DA000A8230A128A11F4012A30F50000300A1231
:100DB0008A11E7230A128A1101300A128A11932438
:100DC0000A128A1183120313DB01DC01831203135D
:100DD00008140630FA001330F900AD30F800F80BB3
:100DE000EF2EF90BEF2EFA0BEF2EF62E83120313D4
:100DF00008100630FA001330F900AD30F800F80B97
:100E0000FF2EF90BFF2EFA0BFF2E062F0130831257
:100E10000313DB070318DC0A0030DC075C08803AA8
:100E2000FF0080307F02031D172F06305B02031C7A
:100E30001A2F1B2FE62E83120313E201E301812FE9
:100E4000013083120313E2070318E30A0030E307BB
:100E50000A128A11A8230A128A11F4011930F50026
:100E600000300A128A11E7230A128A1102300A128C
:100E70008A1193240A128A1183120313DD01DE0101
:100E80008312031388140430FA000C30F900333055
:100E9000F800F80B492FF90B492FFA0B492F502F67
:100EA0008312031388100830FA001B30F900273032
:100EB000F800F80B592FF90B592FFA0B592F013065
:100EC00083120313DD070318DE0A0030DE075E0815
:100ED000803AFF0080307F02031D702F03305D02D7
:100EE000031C732F742F402F1530FA004B30F9007C
:100EF000BE30F800F80B7A2FF90B7A2FFA0B7A2F05
:100F000000000A128A11A8230A128A11592E0A1205
:100F10008A11A8230A128A11F4010730F500003063
:100F20000A128A11E7230A128A1100300A128A1162
:100F300093240A128A1183120313DF01E001831242
:100F4000031308150430FA000C30F9003330F800B0
:100F5000F80BA82FF90BA82FFA0BA82FAF2F83128D
:100F6000031308110630FA001330F900AD30F80011
:100F7000F80BB82FF90BB82FFA0BB82FBF2F013091
:100F800083120313DF070318E00A0030E00760084C
:100F9000803AFF0080307F02031DD02F0A305F02AD
:100FA000031CD32FD42F9F2F5230FA002B30F9007F
:100FB0000030F800F80BDA2FF90BDA2FFA0BDA2FE2
:100FC00000001B2F0A128A11002883134830FD00ED
:100FD0000430FE000B30FF00203084000A128A111A
:100FE000BC230A128A11E201E301E401E501E601F2
:100FF000E701E801E901EA0183010A128A113C2EA6
:04400E00D520FF3F7B
:00000001FF
