:020000040000FA
:1000000001280313831671308F001030850086019C
:1000100003178801831203130130A3008030A4006A
:100020000530A2002308240486002D20A30CA40D73
:10003000A3172414A20B12281030A3000830A40028
:100040000530A2002308240486002D20A30DA40C53
:100050002316A415A20B22280C2834203420342087
:100060003420342034200800D030A000D030A1004B
:0A007000A10B3828A00B3628080069
:04007A00003400341A
:02400E00D520BB
:02401000FF3F70
:00000001FF
